:020000040800F2
:1000000000000120C5020008CB020008CF02000852
:1000100041030008450300088D03000800000000AC
:10002000000000000000000000000000D5030008F0
:10003000D903000800000000DD030008E103000808
:10004000F1030008F1030008F1030008F1030008C0
:10005000F1030008F1030008F1030008F1030008B0
:10006000F1030008F1030008F1030008F1030008A0
:10007000F1030008F1030008F1030008F103000890
:10008000F1030008F1030008F1030008000000007C
:10009000000000000000000000000000F103000864
:1000A000F1030008F1030008F1030008F103000860
:1000B000F1030008F1030008F1030008F103000850
:1000C000F1030008F1030008F1030008F103000840
:1000D000F1030008F1030008F1030008000000002C
:1000E000F1030008F1030008F1030008000000001C
:1000F000000000000000000000000000F103000804
:1001000000000000F1030008F1030008F1030008FB
:1001100000000000000000000000000000000000DF
:10012000F1030008F1030008F1030008F1030008DF
:10013000F1030008000000000000000000000000C3
:10014000000000000000000000000000F1030008B3
:10015000F1030008F1030008F1030008F1030008AF
:10016000F1030008F1030008000000000000000097
:10017000000000000000000000000000000000007F
:1001800000000000F1030008000000000000000073
:10019000F103000800B583B000F046FE384B394A41
:1001A0001360394A1360394900E02146384B9942BF
:1001B0000BD20A684B6801F10C0488689842F4D9A4
:1001C0001168196004330432F8E72E4B1A68314B7A
:1001D0009A4200D0FEE72C4B1A682F4B9A42F9D175
:1001E000274B2E4A13602E4A13602E4B05E0002049
:1001F000106004329342FAD80B462B4A934204D241
:10020000194651F8082B5B68F4E7244B1B6813B9B7
:10021000234B1B6803B1FEE701F004F8694601A80F
:1002200000F094FD214C224BE41AA4100025AC42AE
:1002300014DC204C204BE41AA4100025AC4213DC43
:100240000099019800F0F6FF05461C4C1C4BE41A7F
:10025000A410002C0EDC284600F04AFD144B53F885
:10026000253098470135E2E7134B53F8253098477E
:100270000135E3E7013C124B53F824309847E8E797
:10028000BABADECA0000002074000020F40300089F
:100290000C04000878563412325476987800002006
:1002A000140100200C0400081C0400081C040008B1
:1002B0001C0400081C0400081C0400081C0400089E
:1002C0001C04000808B5FFF765FF00BEFEE71EF03E
:1002D000040F0CBFEFF30880EFF309807146414A29
:1002E00010472DE9F04182B004468846124B5E6B00
:1002F0009F6B9D6A1B6B13F0020F03D00E4BDB6AE2
:10030000002B0CDB0D4800F033FDCDF800803B46A0
:1003100032462946204600F093FD00BEFEE74BF62C
:10032000AB6100F007FE0028ECD0034B4FF0004219
:10033000DA6202B0BDE8F08100ED00E0581D00086F
:1003400000BEFEE71EF0040F0CBFEFF30880EFF3D2
:1003500009807146244A10472DE9F04182B00446D5
:100360008846084B5E6B9F6B9D6A074800F000FD56
:10037000CDF800803B4632462946204600F060FD1D
:1003800000BEFEE700ED00E0681D00081EF0040F4F
:100390000CBFEFF30880EFF309807146134A104752
:1003A0002DE9F04182B004468846084B5E6B9F6B96
:1003B0009D6A074800F0DCFCCDF800803B463246E1
:1003C0002946204600F03CFD00BEFEE700ED00E0BF
:1003D000741D000800BEFEE700BEFEE700BEFEE79B
:1003E00070470000E302000859030008A103000859
:0403F00000BEFEE766
:1003F40000A60008000000207800002000A60008E5
:1004040000000010000000107800002018010020F7
:080414000000001000000010C0
:1004200010B50446074B1868074BA3FB0030800942
:1004300000F090F8002221464FF0FF3000F044F821
:10044000002010BD0C000020D34D621008B50B4BEE
:100450001A6842F400721A601A6842F480621A60E4
:100460001A6842F480721A60032000F00FF80F201F
:10047000FFF7D6FF00F006FF002008BD003C024059
:10048000014B1868704700BF0C01002010B50446EE
:10049000C31E042B0FD80A4AD36823F4E0631B045D
:1004A0001B0C240204F4E064234343F0BF6343F4D1
:1004B0000033D36010BDA421024800F04FFCEAE7EE
:1004C00000ED00E0881B000870B505460C46164696
:1004D0000F2A25D80F2C28D81B4BDB68C3F3022327
:1004E000C3F10702042A28BF0422191D062921D9B5
:1004F000033B4FF0FF3101FA02F224EA02049C4070
:1005000001FA03F326EA03063443002D14DB240129
:10051000E4B205F1604505F5614585F8004370BD1D
:10052000BC210A4800F01AFCD4E7BD21074800F0BE
:1005300015FCD1E70023DCE705F00F052401E4B248
:10054000034B5C55EBE700BF00ED00E0881B0008A3
:1005500014ED00E00138B0F1807F0AD2064B5860FC
:10056000064AF02182F823100020986007221A60C2
:1005700070470120704700BF10E000E000ED00E090
:1005800010B50446042800D038B9042C0BD0094A11
:10059000136823F00403136010BD40F2B311064842
:1005A00000F0DCFBF1E7034A136843F00403136037
:1005B000F2E700BF10E000E0881B000830B583B010
:1005C000044603680F2B29D8236813F0010F3DD090
:1005D0006368012B01D9052B25D1A34B9B6803F040
:1005E0000C03042B29D0A04B9B6803F00C03082BB1
:1005F0001ED022799D4B1A706368002B50D0FFF7F4
:100600003FFF0546984B1B6813F4003F1ED1FFF7D0
:1006100037FF401B6428F5D90320E3E1F521944816
:1006200000F09CFBD0E7FA21914800F097FBD4E75B
:100630008D4B5B6813F4800FDBD08B4B1B6813F47E
:10064000003F03D06368002B00F0C981236813F0DA
:10065000020F5DD0E368012B31D823691F2B34D8FA
:10066000814B9B6813F00C0F3AD07F4B9B6803F0D3
:100670000C03082B2FD0E368002B74D07D4B012294
:100680001A60FFF7FDFE0546774B1B6813F0020F5B
:100690005AD1FFF7F5FE401B0228F5D90320A1E14E
:1006A000FFF7EEFE0546704B1B6813F4003FCDD0FC
:1006B000FFF7E6FE401B6428F5D9032092E14FF4D2
:1006C00096716B4800F04AFBC7E740F22D1168486D
:1006D00000F044FBC4E7644B5B6813F4800FCAD19D
:1006E000614B1B6813F0020F04D0E368012B01D0AB
:1006F000012077E15C48036823F0F8032169F822C0
:1007000092FAA2F2B2FA82F201FA02F21343036001
:10071000236813F0080F50D06369012B35D8636943
:10072000002B38D0544B01221A60FFF7A9FE054672
:100730004D4B5B6F13F0020F3FD1FFF7A1FE401B43
:100740000228F5D903204DE14748036823F0F80358
:100750002169F82292FAA2F2B2FA82F201FA02F2C6
:1007600013430360D4E7434B00221A60FFF788FE6F
:1007700005463D4B1B6813F0020FC9D0FFF780FE02
:10078000401B0228F5D903202CE140F26D113848B6
:1007900000F0E4FAC3E7384B00221A60FFF770FE5E
:1007A0000546314B5B6F13F0020F06D0FFF768FE72
:1007B000401B0228F5D9032014E1236813F0040F2D
:1007C00060D0A368012B01D9052B1FD10023019311
:1007D000254B1A6C42F080521A641B6C03F0805354
:1007E0000193019B254A136843F480731360FFF75C
:1007F00047FE0546214B1B6813F4807F0CD1FFF7A1
:100800003FFE401B0228F5D90320EBE040F2971190
:10081000174800F0A3FAD9E7227A194B1A70A36897
:1008200083B1FFF72DFE05460F4B1B6F13F0020F30
:1008300028D1FFF725FE401B41F288339842F3D9B7
:100840000320CFE0FFF71CFE0546074B1B6F13F09C
:10085000020F17D0FFF714FE401B41F28833984275
:10086000F3D90320BEE000BF003802400238024046
:10087000CC1B000800004742800E47420070004039
:1008800070380240A369022B39D8A369002B00F00D
:10089000A880564A926802F00C02082A00F0A48050
:1008A000022B40F08880E36913B1B3F5800F2CD19F
:1008B000236A3F2B2FD8636A323BB3F5BF7F30D812
:1008C000A36A022B05D0042B03D0062B01D0082BE2
:1008D0002DD1E36A043B0B2B2FD8454B00221A6025
:1008E000FFF7CEFD0546414B1B6813F0007F2AD071
:1008F000FFF7C6FD401B0228F5D9032072E04FF434
:10090000E6713C4800F02AFABFE740F2D5113948B9
:1009100000F024FACCE74FF4EB71364800F01EFAF1
:10092000C9E740F2D711334800F018FAC8E74FF48E
:10093000EC71304800F012FACBE740F2D9112D48A3
:1009400000F00CFAC9E7E369226A1343616A47F6CB
:10095000C07292FAA2F2B2FA82F201FA02F21343E0
:10096000A26A5208013A4FF4403191FAA1F1B1FA6A
:1009700081F18A401343E16A4FF0706292FAA2F269
:10098000B2FA82F201FA02F21343184A5360184B8A
:1009900001221A60FFF774FD0446144B1B6813F024
:1009A000007F06D1FFF76CFD001B0228F5D903205C
:1009B00018E0002016E00E4B00221A60FFF760FDE1
:1009C00004460A4B1B6813F0007F06D0FFF758FD62
:1009D000001B0228F5D9032004E0002002E00120DA
:1009E00000E0002003B030BD0120FBE700380240EA
:1009F00060004742CC1B0008214B9B6803F00C03AE
:100A0000042B3AD0082B01D01E4870471C4B586865
:100A100000F03F005B6813F4800F1ED01A4AB2FB4F
:100A2000F0F2174B586847F6C073184093FAA3F3D7
:100A3000B3FA83F3D84000FB02F0114B5B6803F478
:100A400040334FF4403292FAA2F2B2FA82F2D3402B
:100A500001335B00B0FBF3F070470A4AB2FBF0F2DF
:100A6000074B586847F6C073184093FAA3F3B3FADC
:100A700083F3D84000FB02F0DFE70348704700BF74
:100A8000003802400024F40040787D0170B504462F
:100A90000D460368013B0E2B11D8072D15D88C4B42
:100AA0001B6803F00F03AB4215D2EBB2884A1370F8
:100AB000136803F00F03AB420DD0012070BD40F26C
:100AC0003721844800F04AF9E7E74FF40E71814876
:100AD00000F044F9E3E7236813F0020F18D0A3688D
:100AE0007BB1802B0DD0902B0BD0A02B09D0B02B3D
:100AF00007D0C02B05D0D02B03D0E02B01D0F02B9A
:100B000037D1754A936823F0F003A1680B439360D3
:100B1000236813F0010F73D06368032B2FD8636829
:100B2000012B32D09A1E012A36D96B4A126812F074
:100B3000020F00F0CA8068498A6822F0030213435A
:100B40008B60FFF79DFC06466368012B2BD0022BC0
:100B500038D0032B45D0604B9B6813F00C0F4FD05F
:100B6000FFF78EFC801B41F288339842F3D90320B3
:100B7000A4E740F24F21574800F0F0F8C1E740F2F7
:100B80005621544800F0EAF8C9E7534A126812F4B3
:100B9000003FD0D1012091E74F4A126812F0007F48
:100BA000C9D101208AE74C4B9B6803F00C03042B4E
:100BB00026D0FFF765FC801B41F288339842F2D9BA
:100BC00003207BE7444B9B6803F00C03082B17D0F2
:100BD000FFF756FC801B41F288339842F2D903207C
:100BE0006CE73D4B9B6803F00C030C2B08D0FFF720
:100BF00047FC801B41F288339842F2D903205DE71D
:100C0000334B1B6803F00F03AB4209D9EAB2304BF8
:100C10001A701B6803F00F03AB4201D001204DE7AF
:100C2000236813F0040F14D0E3685BB1B3F5805F61
:100C300008D0B3F5A05F05D0B3F5C05F02D0B3F51F
:100C4000E05F36D1244A936823F4E053E1680B4314
:100C50009360236813F0080F15D023695BB1B3F5D7
:100C6000805F08D0B3F5A05F05D0B3F5C05F02D0B8
:100C7000B3F5E05F23D1184A936823F460432169F8
:100C800043EAC1039360FFF7B7FE134B9B6803F081
:100C9000F003F02292FAA2F2B2FA82F2D3400F4AA3
:100CA000D35CD8400E4B18600F20FFF7B9FB002033
:100CB00004E74FF42D71074800F050F8C2E740F206
:100CC000BB21044800F04AF8D5E70120F6E600BF52
:100CD000003C0240CC1B000800380240BC1B00084E
:100CE0000C000020014B1868704700BF0C0000206A
:100CF000FEE7000008B5034800F052F80120FFF7B6
:100D0000F7FF00BFFC1B000808B503460C4A126839
:100D10005AB10B4A1068033323F003030344094A12
:100D2000934206D8064A136008BD054A0649116079
:100D3000EFE700F0A9FA0C2303604FF0FF30F3E770
:100D40007C00002000FC002018010020012303602B
:100D5000014B0B60704700BF0400002008B50A4635
:100D60000146024800F004F8FFF7C4FF101C000819
:100D70000FB400B583B004AB53F8042B019380216A
:100D8000064800F0BBFA002803DD0146034800F0E6
:100D900047F803B05DF804EB04B07047840000200E
:100DA00010B5044600F076FA0146204600F038F807
:100DB0000121024800F034F810BD00BFD41C000827
:100DC0002DE9F04385B004460F4643560BB10E465D
:100DD0001EE0042528462146ABBE0446384605B031
:100DE000BDE8F08314F9011B04AA1A4402F8101C90
:100DF0000133AB42F6D304AA1344002203F8102CAB
:100E00004FF00408E94640464946ABBE8046761B93
:100E1000002EE3D03546102E28BF10250023E8E72A
:100E200008B5FFF7CDFF08BD08B500F093F8024AFA
:100E3000024B9A6008BD00BF0000000800ED00E012
:100E4000F8B504460D4617461E462748FFF790FFA3
:100E500021682648FFF78CFF61682548FFF788FF67
:100E6000A1682448FFF784FFE1682348FFF780FF6B
:100E700021692248FFF77CFF61692148FFF778FF6D
:100E8000A1692048FFF774FFE1691F48FFF770FF71
:100E90001E48FFF76DFF29461D48FFF769FF1D4CEF
:100EA000E16A1D48FFF764FF216B1C48FFF760FFF4
:100EB000E16B1B48FFF75CFF15F0800F0AD115F4BA
:100EC000004F0CD11748FFF753FF06991648FFF75C
:100ED0004FFFF8BD39461548FFF74AFFEFE73146A7
:100EE0001348FFF745FFEDE73C1C00084C1C0008C9
:100EF0005C1C00086C1C00087C1C00088C1C000892
:100F00009C1C0008AC1C0008BC1C0008CC1C000881
:100F1000D81C000800ED00E0E81C0008F81C0008E0
:100F2000081D0008381D0008401D0008181D000895
:100F3000281D000883691A888A4201D00020704762
:100F40000268033A012A03D8023383610120704703
:100F5000002070470C4B1A6842F001021A60002111
:100F600099601A6822F0847222F480321A60074A6B
:100F70005A601A6822F480221A60D960044B4FF03C
:100F800000629A60704700BF0038024010300024B1
:100F900000ED00E0224B9B6803F00C03042B14D0FF
:100FA000082B16D01BB11F4B1F4A1A6002E01D4BC5
:100FB0001D4A1A601A4B9B68C3F303131B4AD15C8A
:100FC000184A1368CB4013607047164B184A1A60D2
:100FD000F0E7134B5A685B6803F03F0312F4800F8D
:100FE00013D0134AB2FBF3F20D4B5B68C3F38813C3
:100FF00003FB02F30A4A5268C2F301420132520073
:10100000B3FBF2F3074A1360D4E7074AB2FBF3F2EB
:10101000034B5B68C3F3881303FB02F3EAE700BFEB
:10102000003802400C0000200024F400841D000859
:1010300040787D0110B1012803D07047024B196040
:101040007047024B196070470000024000040240E4
:1010500010B1012803D07047024B19607047024B52
:1010600019607047040002400404024010B10128D6
:1010700003D07047024B19607047024B19607047EC
:10108000080002400804024010B1012803D0704754
:10109000024B19607047024B196070471400024000
:1010A00014040240164B1A6842F001021A601A68D2
:1010B00022F480321A601A6822F080721A60104B93
:1010C0001B6813F0020FFAD00E4B1A6822F00102CF
:1010D0001A601A6822F002021A601A6822F0F002FE
:1010E0001A601A681A601A6822F4E0521A601A68C4
:1010F0001A601A6822F460421A601A681A6070470F
:10110000003802400838024001280BD010B10228F4
:1011100010D070470B480368012202FA01F119430D
:101120000160704708480368012202FA01F119437F
:101130000160704705480368012202FA01F1194372
:101140000160704730380240403802404438024065
:10115000064B1A6822F004021A601A6822F0020292
:101160001A601A6842F001021A60704710E000E04D
:10117000054B5860044B1B6813F4803FFAD0024BB8
:1011800000229A60704700BF10E000E070B594B094
:1011900000240194204B1A6C42F080521A641B6C9C
:1011A00003F080530193019B02941C4B1A6842F494
:1011B00040421A601B6803F440430293029B0123E0
:1011C000089309934FF480030F93192310934FF45E
:1011D000A8731193042612960723139302250E95E4
:1011E00008A8FFF7EBF90F230393049505944FF438
:1011F000805306930794294603A8FFF747FCFFF79F
:1012000071FD074BA3FB00308009FFF7A3F93046BF
:10121000FFF7B6F914B070BD00380240007000400E
:10122000D34D621008B5FFF711F9FFF7AFFFFFF7D5
:10123000B1FE08BD10B5FFF735FF01210020FFF713
:1012400063FFFFF785FF4FF055310120FFF7F2FEF6
:1012500000210120FFF70AFF00210120FFF7F8FE1F
:101260000CE0074B195D0120FFF70EFFFA20FFF796
:101270007FFF013448F635039C42F2D90024F9E798
:10128000941D000870470000014B1868704700BFAC
:1012900010000020034613F8012B002AFBD1181A76
:1012A0000138704730B5141E05469BB0184605DA64
:1012B0008B232B604FF0FF301BB030BD4FF4027317
:1012C000ADF80C3014BF04F1FF33234602930593AD
:1012D0004FF6FF7300910491ADF80E3002461E9B4D
:1012E0006946284600F072F8431CBCBF8B232B6074
:1012F000002CE1D0009B00221A70DDE707B50093B7
:1013000013460A46014603480068FFF7CBFF03B0C7
:101310005DF804FB100000202DE9F0478E689E4226
:1013200082460C469046994637D88A8912F4906FC7
:1013300031D0256809696F1A6569022305EB4505F7
:1013400095FBF3F509F101033B449D4238BF1D466F
:10135000530530D5294600F07DFB064650B90C23D5
:10136000CAF80030A38943F04003A3814FF0FF3057
:10137000BDE8F0873A46216900F0FAFAA38923F420
:10138000906343F08003A381266165613E44ED1BB9
:101390002660A5604E464E4500D94E46324641462F
:1013A000206800F0F0FAA3689B1BA36023681E442A
:1013B00026600020DCE72A4600F0A6FB064600284F
:1013C000E2D12169504600F0F7FAC8E72DE9F04F65
:1013D0009DB0804603938B891D060C4616460FD59B
:1013E0000B696BB9402100F035FB2060206128B902
:1013F0000C23C8F800304FF0FF30C7E04023636192
:101400000023099320238DF8293030238DF82A30CA
:101410004FF0010B37463D4615F8013B0BB1252B2C
:101420003ED1B7EB060A0BD0534632462146404622
:10143000FFF772FF013000F0A480099B5344099329
:101440003B78002B00F09D8000234FF0FF32CDE968
:101450000523049307938DF853301A932F460522E2
:1014600017F8011B4F4800F033FA049BD0B9D90696
:1014700044BF20228DF853201A0744BF2B228DF839
:1014800053202A782A2A15D0079A2F4600200A25A9
:10149000394611F8013B303B092B4DD9B8B10FE06B
:1014A0002F46B8E73F4A801A0BFA00F01843049021
:1014B0003D46D3E7039A111D12680391002A01DB10
:1014C000079204E0524243F00203079204933B78F0
:1014D0002E2B0CD17B782A2B33D1039B1A1D1B6832
:1014E0000392002BB8BF4FF0FF33023705932E4D08
:1014F00039780322284600F0EBF938B14023401B2D
:1015000003FA00F0049B034301370493397827481A
:101510008DF8281006227E1C00F0DAF9002838D059
:10152000234B13BB039B073323F0070308330393B9
:10153000099B4B4409936DE705FB023201200F46DE
:10154000A6E700230137059319460A25384610F807
:10155000012B303A092A03D9002BC8D00591C6E7E0
:1015600005FB012101230746F0E703AB0093224668
:10157000104B04A94046AFF30080B0F1FF3F814615
:10158000D6D1A3895B063FF536AF09981DB0BDE8FB
:10159000F08F03AB00932246064B04A9404600F0AF
:1015A00081F8EAE7CAA50008D0A50008D4A500087C
:1015B00000000000191300082DE9F04791461F466E
:1015C0008A680B69DDF820809342B8BF1346C9F8DA
:1015D000003091F8432006460C4612B10133C9F899
:1015E00000302368990642BFD9F800300233C9F8A9
:1015F0000030256815F0060507D104F1190AE368E3
:10160000D9F800209B1AAB4228DC94F843302268BA
:10161000003318BF012392062DD404F1430239464A
:101620003046C047013020D02368E568D9F8002053
:1016300003F00603042B08BFAD1AA36822690CBF90
:1016400025EAE57500259342C4BF9B1AED184FF0BB
:1016500000091A344D451AD1002008E001235246F2
:1016600039463046C047013003D14FF0FF30BDE866
:10167000F0870135C3E7E1185A1C302081F8430098
:10168000224494F8451082F843100233C5E7012341
:10169000224639463046C0470130E6D009F10109FB
:1016A000D8E700002DE9F04301F1430C0C46097E18
:1016B00085B06E291746064698460C9A00F0B3800E
:1016C00022D8632936D00AD8002900F0B9805829D9
:1016D00000F0838004F1420584F8421032E064296E
:1016E00001D06929F6D120681368050603F10401C9
:1016F0002AD51B681160002B03DA2D225B4284F887
:1017000043206F480A2239E0732900F09D8008D8F1
:101710006F2920D07029DDD1236843F02003236096
:1017200003E0752917D07829D4D1782384F845307F
:10173000644855E01368191D1B68116004F14205E7
:1017400084F8423001238CE01B68116010F0400FD8
:1017500018BF1BB2CFE713682568181D1060280654
:1017600001D51B6802E06806FBD51B8854486F2929
:1017700014BF0A220822002184F843106568A5607E
:10178000002DC0F29580216821F004012160002B1A
:101790003DD1002D40F08E806546082A0BD123688C
:1017A000DB0708D5236962689A42DEBF302305F85B
:1017B000013C05F1FF35ACEB05032361CDF800805A
:1017C0003B4603AA21463046FFF7F6FE01304DD1D5
:1017D0004FF0FF3005B0BDE8F083394884F845107C
:1017E000136821681D1D1B6815600A060BD5CA0702
:1017F00044BF41F0200121601BB9226822F0200281
:1018000022601022B7E74D0648BF9BB2EFE765465E
:10181000B3FBF2F102FB1133C35C05F8013D0B464B
:101820000029F5D1B9E7136825686169181D1060B2
:1018300028061B6801D5196002E06A06FBD51980ED
:10184000002323616546B9E71368191D11601D68FF
:1018500062680021284600F03BF808B1401B606038
:1018600063682361002384F84330A7E723692A468D
:1018700039463046C0470130AAD023689B0713D4AD
:10188000E068039B9842B8BF1846A3E701234A4685
:1018900039463046C04701309AD00135E368039A93
:1018A0009B1AAB42F2DCEBE7002504F11909F5E7DE
:1018B000002BACD1037884F8423004F142056CE788
:1018C000DBA50008ECA500080000000000000000F7
:1018D00001F0FF01102A2BDB10F0070F08D010F8E1
:1018E000013B013A8B422DD010F0070F42B3F6D1E5
:1018F000F0B441EA012141EA014122F007047FF0FE
:1019000000070023F0E80256083C85EA010586EA54
:10191000010685FA47F5A3FA87F586FA47F6A5FA90
:1019200087F68EB9EED1F0BC01F0FF0102F007029C
:1019300032B110F8013B013A83EA010313B1F8D147
:101940000020704701387047002D06BF3546033828
:10195000073815F0010F07D1013015F4807F02BF61
:10196000013015F4C03F0130F0BC0138704700BFB2
:1019700010B5431E0A44914200D110BD11F8014B2D
:1019800003F8014FF7E7884210B501EB020307D8CF
:10199000421E99420AD011F8014B02F8014FF8E7B4
:1019A0008342F5D98118D21AD34200D110BD13F861
:1019B000014D01F8014DF7E738B50546002945D03E
:1019C00051F8043C0C1F002BB8BFE41800F0D2F80B
:1019D0001F4A1368104633B9636014602846BDE897
:1019E000384000F0C8B8A3420CD92168621893426D
:1019F00004BF1A685B68636004BF52182260046009
:101A0000ECE713465A680AB1A242FAD91968581885
:101A1000A0420BD120680144581882421960DDD1E0
:101A2000106852685A6001441960D7E702D90C2344
:101A30002B60D3E7206821188A4204BF11685268DE
:101A4000626004BF091821605C60C7E738BD00BF51
:101A50000401002070B5CD1C25F0030508350C2DC0
:101A600038BF0C25002D064601DBA94203D90C2303
:101A70003360002070BD00F07DF8214A14682146D3
:101A800091B9204C23681BB9304600F063F8206000
:101A90002946304600F05EF8431C24D10C23336005
:101AA000304600F068F8E4E70B685B1B18D40B2B9A
:101AB0000FD90B60CD50CC18304600F05CF804F123
:101AC0000B00231D20F00700C31AD3D05A42E25066
:101AD000D0E78C424B6816BF636013600C46EBE79F
:101AE0000C464968CCE7C41C24F00304A04205D08E
:101AF000211A304600F02EF80130CFD02560DBE708
:101B00000401002008010020F8B5074614460E46DF
:101B100021B91146BDE8F840FFF79CBF22B9FFF795
:101B20004BFF25462846F8BD00F026F8A0420FD20C
:101B300021463846FFF78EFF05460028F2D0314691
:101B40002246FFF715FF31463846FFF735FFE9E734
:101B50003546E7E738B5064C0023054608462360BE
:101B6000FFF7D2F8431C02D1236803B12B6038BDC4
:101B7000100100207047704751F8043C181F002BDB
:101B8000BCBF0B58C01870472E2E2F737973746525
:101B90006D2F7372632F73746D333266342D6861E9
:101BA0006C2F73746D3332663478785F68616C5F64
:101BB000636F727465782E630000000000000000FF
:101BC0000102030401020304060708092E2E2F73E5
:101BD000797374656D2F7372632F73746D3332660E
:101BE000342D68616C2F73746D3332663478785F8E
:101BF00068616C5F7263632E6300000061626F72E4
:101C00007428292C2065786974696E672E2E2E0041
:101C10006173736572745F706172616D28292066EB
:101C200061696C65643A2066696C652022257322BF
:101C30002C206C696E652025640A00005374616372
:101C40006B206672616D653A0A00000020523020F8
:101C50003D2020253038580A000000002052312055
:101C60003D2020253038580A000000002052322044
:101C70003D2020253038580A000000002052332033
:101C80003D2020253038580A000000002052313213
:101C9000203D20253038580A00000000204C5220FA
:101CA0003D2020253038580A0000000020504320F5
:101CB0003D2020253038580A0000000020505352A3
:101CC000203D20253038580A000000004653522F8E
:101CD0004641523A0A0000002043465352203D201C
:101CE00020253038580A00002048465352203D2015
:101CF00020253038580A00002044465352203D2009
:101D000020253038580A00002041465352203D20FB
:101D100020253038580A0000204D4D464152203DC4
:101D200020253038580A00002042464152203D20EC
:101D300020253038580A00004D6973630A000000FE
:101D4000204C522F4558435F52455455524E3D202A
:101D5000253038580A0000005B486172644661759E
:101D60006C745D0A000000005B4275734661756C1F
:101D7000745D0A005B55736167654661756C745DDF
:101D80000A0000000000000000000000010203043F
:101D90000607080949ACC7D0B8BCC7C6A1575F4FF2
:101DA0008A5E59508778966E7685A2929887869635
:101DB000716E5451515C304E32BDBDD5B4CBD2D6CC
:101DC00095616157874F5558837893637F8BA68FB2
:101DD0009F7F98897B61534753492B3E44C7BDDDA4
:101DE000B5DFD4E1867655687A4C4C5D75738561B4
:101DF000828AA595A982A5827F585638582E3A31F5
:101E00005DC7BBD8B7ECD2DD7F865278674E455FA1
:101E10006F74826D878DA09BA18E9F837C535438F5
:101E200056223C207ABAC0C8C5E3E2CC85874D83F0
:101E30006157457262857273799295A4A490A583C7
:101E40007D535039521E3B1E95B0C5BAC8E2E1C55C
:101E50008B81598A5D53496A5D7E667379939DAD26
:101E60009AA49C8C7455484041252C2AA9ADC8B52C
:101E7000D8DFEDB2937D6A87574A53656075616E0E
:101E80007E909DA993A89C8D6D633D522D2F184C7B
:101E9000ABAEC0B5DDE2E3A09B7486776252675BB0
:101EA000676B596C7E869FA099AD968B7152424BA1
:101EB00026321279A1B6B3CCDBE7C89C9578876A45
:101EC0005A596B53766068678785A7999FA2947F5C
:101ED0006B474E4228333497A1B9B4D5D7DFAA9FB8
:101EE0008177816E5868656377665C717A8A988FAE
:101EF000A19493786C455D27391D6897AAB1BBDC26
:101F0000D9D3959F707E76715D725C747D6B6D73B5
:101F10007F92908894947F6F5A524F38254A8D9BB8
:101F2000B3B4D3D9D1A99D85716860607264697FAB
:101F30007A7A7A85898F86829383765B5249433099
:101F4000418189ACB2D3DDDDAEAB8E7A6D565C6477
:101F50006C6484818687868B92847587766A5C4DF3
:101F60004347363D8490A7B1CCDDE3B0A9947E6FA2
:101F7000545558675C848B8E909096A18775786FC6
:101F80006D5149434334458692A3B5C9E0E6BCB0E0
:101F9000997E6E5549535C5271878D96A496A98D92
:101FA0007D7C6757444739452D578A96ADBFCCE2B3
:101FB000E4BDB99C84695A49504A5170778991A50A
:101FC000A0AB9785836E513E3B303F2B568D91AC35
:101FD000C6D0E0DAC1B8A98A72615050454F606F2F
:101FE0007B889FAAB2A08E927F5E443E2636294B04
:101FF0007C7F9FBACED7DEC6C5B4947F75625B3F47
:102000003F4C626A728C99AEAC9F9590765B564558
:10201000423745666F8291B5BCC7C8C9C2B3998AB9
:10202000846F5E4D3F4B54526B7D8FA09A979C906E
:102030007476625B594D656470749297AAB2B4C1AC
:10204000BDAA9F9E887E6B5151514A56636F7F9007
:102050008697948E877F6E6D666C716369798B8FBE
:10206000999AAABAB2A9A6988F7C685A564A525928
:102070005F6F7F7B8A92909790807A7876816D6788
:102080006A7A818D8692A2AEABA6A0988D7B715D97
:102090005F525B5D666F767A818F90948B87807FCD
:1020A000807F776A6E7380857F8B9BA2A2A09694B7
:1020B0008C817267626062636C74777983869090BA
:1020C0008C838783848875716D74747B7E86939806
:1020D0009B9896958B84786F6C6869666C6F79783D
:1020E0007D84878E8D8A88878D858079746D7074E4
:1020F000768785908F8E92978A8A7E7475716C6CC4
:102100006B6C7B787F7F8A8C8D898A8A8C8B7D7EB5
:1021100076716D7273778480848C8C938F8C8180C0
:102120007D78766F6F757A7B7F83868C8E858887C6
:102130008C84817578746D7272767C817D868C8CCE
:102140008D8F8384818177747076797B807F8A8A92
:10215000888989888C86827E7B75796D70747274AB
:102160007D7E7F8B888E8A8A8787817A7977757B57
:102170007A7F828381848C888E8A84838178797542
:102180006C6C756F777C7E838B8B8B918A89838552
:102190007B7A76787A7F7E7F7D80848C8B8A8C7F39
:1021A000867E7A74746C72716E79787F848C8D926D
:1021B000908B8786837B7C78767B7E7D7A7A7D8820
:1021C0008C8F898886827B7673706F6F77777A7849
:1021D00081878E908E8888878B867C7977787B7CC8
:1021E000717B7B80868A868A8A8080797A75717312
:1021F0007679787C80888E8E8E8686888C868279A9
:102200007A7777746F7279807F88898C8D827C83EE
:102210007C7773747778797C7C838A8A8F8C898EBB
:10222000948A857C78756F6A6D6D73797A858A8AF0
:102230008982848582807A7E7D82797E7B7D838798
:102240008A828B8D9690887F7A736D6665696B72D2
:102250007A86838485888586848985878C8784832C
:10226000807D8382807C83878F86847D7A74686793
:102270006465667277817E848C87898E908C939A50
:10228000959088867A7C7A79767285848887847836
:102290007A736663585D666A697C7F848A909D9BC9
:1022A0009DA3A79C9C8E867C787F76767173767FC3
:1022B000827A80717370625C5E5F5F7978808796E6
:1022C0009AA6AFAAABACA3989A837A746E70716C1D
:1022D00072697172796D6A685C5D4E676C69799A32
:1022E0009A9EABB1B7B8ADADA691888677616464AC
:1022F00061676D6E726668656950657B5F6A8E8B1B
:1023000087A9ACB3B5A9A8A98E8C8E7868726F6ABC
:102310006C706D756C6D6D694A60764F708C8784DA
:10232000ACA1ACA9A4AFAC9099956F6E73706270BC
:1023300070787878736964576D7555748B7D87AA4A
:10234000A09CACA4AA998D8D846E7D7D6D72716EFA
:102350006F76777168715A636F5467867F87AAA119
:102360009FB2B2ADA7959181716A665A656C757B13
:102370008A7F7D716B624A6C545D7E8B84A9B8B78D
:10238000C2C1B0A4928A80686560565D706A7D7F24
:10239000907F83736C4D50613F62818093BDBAC65C
:1023A000C8C0B3A7928B6A595F5B576474718592FA
:1023B0008C7B80605641485842698584A4D0CBD23A
:1023C000D8C6B69B8275534C60525372777F9A9AE7
:1023D0008C8C7A6157324042376A8988BED7C6E012
:1023E000D7C2B2988077535654415C716C828F8902
:1023F0008F8678665235533B447C7B90CCCBD0ECB7
:10240000D1C9B38E816B4D5A515167716E868C8CD8
:102410008578635C3E3A5637668682A8D0BADDD7A7
:10242000BBBCA48D856B57614A5966687791868AD3
:1024300082715E5A35424B326D7C8EBED4C8E7D273
:10244000BAB99C857C635B5D58646E6B81898388B7
:102450007B6C5D532B4A35467C7B97C4BED0E8C26B
:10246000C1B69581765A64555F656B77908B8E8A7D
:10247000736957402F4C325F777DAAC8BFD9CEB45D
:10248000B6A08B7F726969586A67758392828D8462
:10249000796E5A35414833726E83B7BFB7D8C0B62C
:1024A000B495807D6865635D6D6C78838783998161
:1024B0007B6353344F433E736E94BDBFC1DFC2BADA
:1024C000B490807C5D5E5858636D778B898D957D67
:1024D00070654E365A305877759FC0B2CEDFB3C2A2
:1024E000A592877D6163545D5E63727A78918B7C7F
:1024F0007964484553356C7480A8C1B4DBCAAFB960
:10250000A1968C796269586D60687477828B786C5B
:1025100064573E53494B7F7E93BEBFBEE0B5B6AC19
:1025200098817E616562647065787D86858C6D7149
:10253000644B334E2E507C739FC7BBD1E2B3C0AB0C
:1025400093827E6169595E626577867E8A8B777B2E
:102550006842405335727074A7BBACD9C6B2C7A6E7
:10256000918D756769515D5C67787A77927E7F742B
:102570005E3B5D4A4C786A89BBB3B3D7ACB7B198C0
:10258000858A6D706263646D7679768189766E6115
:102590004B436540707B81ABC3ACD0C7AAB3988373
:1025A0007E7963685F6C6F76797B79907971625917
:1025B000395540447A7095BFBCC1E8B6B9B6978426
:1025C0008A5F605963666D777D818F8A716E534F24
:1025D0003E5A37677479A4BBB0CED5ADBFAC908AF4
:1025E0007961655C645F67747F87947F806D634405
:1025F00051403E75718CB8B2BADBB5B7B3998389D7
:10260000697265676364757E7A878170765E57410B
:102610005E3C6A79789EB6AACDD1AFB8A685827D98
:1026200061685E6A647E8082808C747261533B4A0A
:102630004E447E7B95C1C5BDDAB5A7AC8F7F84665D
:10264000655F6466717880828C8A7C715B4B3654DE
:10265000365C767FA4CEB4D7D3B5BBAA867E745A37
:102660006556665E7473847E957C7A66613F4C4ADB
:102670003A716E86B5C3B4ECC2C1BBA5858E7066D7
:102680005D57585D71767D818E77776156335B3803
:102690005A7A7A98C2B2C8D7B2BCB09489886470AA
:1026A000596960716E7E72877972635D3D475839F2
:1026B0007B738AB1C8B2E5C2B3B49D7B887065688C
:1026C000616F6D807B88808E726C514D2850364DC5
:1026D000797EA2C8BFCBE3B4BDAD8F7A8259645472
:1026E000655F7A7B8B87928B786A56422E5228657B
:1026F0006D81A5C9B1E2D9C0C3A98A84765C66524E
:10270000625B73718B7D947B785E5A37534C417951
:102710007191B8C0B2E4B4B9AE9E85926C69615F44
:102720005F67737A7E7C8A70725E50365E37657C36
:1027300081AACFB3D5D4ABBAA68883805B715D6C18
:1027400065796A83778B7A7561593A4657387B7118
:102750008DB0C9B3EBC1BBBA9B7C86675865576522
:102760006576788C8191706E5754365B3B57817BD0
:10277000A4C6BDC6DEAEBCA9947F86606A5A625A02
:102780006A737F818C86746E5B473952306F7A8AA8
:10279000B2CBB7E1D3B7B7A27B7B6F5C62576663FE
:1027A000767C89808F7A7960572F54434975708E73
:1027B000BFC0C6EBC1C1B19C7E855E6655635C6CD3
:1027C000747C7E8985756F5A484062366B6E80A531
:1027D000CFABD3C8ADB7AA8A857B62705F6D6476D4
:1027E0007486788D756E565430583E4A7D7DA0C3F0
:1027F000C2B8E5B5BAA5906F805E69626B667A80F3
:102800008C8D8D8A756A5244345524686B80A2C7BA
:10281000AFDEDAB7BDA4837C77576253675F7E7BF8
:1028200092889D8580665B35503E3D796C91B0BA4B
:10283000B1DFB2B4AB9D7D896967616864707C7CEF
:102840008C8A8A7A745D4F395D376C777E9EC6AD0F
:10285000CACDA9AB9C836E795B66617168817F95F7
:1028600087927D78605F3749523D7D7A92B5CDABD6
:10287000E0BDB1A496717D65595B585F6F7A7F9911
:10288000839C7F785A5B275D3E527F829DCBC8C276
:10289000E3B8B39D916D7A53604F645F777087881A
:1028A000858E77625A4A2F61326A7D90A8DEBDD844
:1028B000DAB9AEA3836E6F4F5D5269687F779E87EA
:1028C00093816F505A293E4E30798393B9DFB4E734
:1028D000CDBDAEA67780665B5D515B6970779C7FEE
:1028E000988378565C1E4D3F3A7A8590C6D5B8E3FA
:1028F000C2B4A29C7184636B606269787288937BB6
:102900008D7465504E205D354C818D97D2CDC4DCE1
:10291000C2AC9B8A6F79546E5A6A758E78A4978E72
:102920008B745D47351753236088959FDDC3C8D1ED
:10293000B69F9181716E526F586C788E84B197A357
:10294000947F61522223511C637F89A3E6C2D6CFB4
:10295000B4A28F72735D4D7159677E8777A48C9E88
:10296000877B645D2D42582C738891ACE2B9D4C248
:10297000B9A5876F75574B6C4F6B758885A0839889
:102980007668614D2044633B8897A6BDE2C4D3B00E
:10299000AB997368755B4D6B556F768C8C9B87A17B
:1029A000726A583D133456388594BAC7EEDBE0B6E8
:1029B000B4A174656952456156746D8D909889A073
:1029C000716B54411C35533A8089B7C3E5D5E5B7DF
:1029D000BDA77E6C6D5A4C685471688B8C9D819B31
:1029E00073664D3F212E5A3D8493BDC2E7D4D9B3BF
:1029F000AAA27D68726254685B80738C909E809BF3
:102A000072664939192650377F8EBFC6E9D7E2B1C1
:102A1000ACA37661655E556958897F918FA88492D1
:102A20007060493525275640748CBFB9DED8E2BAAC
:102A3000AE9E816E6761576E4B7C788C87A68F98AF
:102A400076635A332B17564A7287BFC0CED3D2C192
:102A5000A69D7E7F656158695D76788A8E8D8C90A3
:102A60007F6A67423F1E44556876A1BECDDACACC64
:102A7000ABA6867E6E6F5F63686B74768B86928A78
:102A8000816F6B49503F475E697687B0A7C0C0BC75
:102A9000A8B69A8D867671707569736F7C727F792E
:102AA0007872715D60513D4B5F67759D93A6BCC3A5
:102AB000ADC6B8ABAEA38A857F67666262606D61A2
:102AC0006860645459474155676B7EA9A4BFD7CD50
:102AD000BAC4AA9B9988747B75676E67656C6D6DC7
:102AE000727070655B4D49485B606491A1A6C7C96F
:102AF000C1CBCDABA3987A75705E5C67626D697669
:102B00007378746E6560584B585B61799395ABBB75
:102B1000C5BBC8B6ABAD9F877B755B5E5C5B566E15
:102B2000707274756B64635052606A6C8A9894B06A
:102B3000C3B1B8BFAAA2AF8B848A74696A5B5A66B4
:102B4000606A6B6D7471585F4E4F676D6899A5A090
:102B5000C5C4ADB9BD98A398827C7B6B6E6667696E
:102B60006768776D6C75625D63534C6A636F94A29E
:102B70009DC3C9BBC2BF9E9A9A7B73706B5F6B6427
:102B80006F72767B7675746A5D5E4A4860665E89B0
:102B90009397B9CCB2C2CDADAAA1876E73625C5EC9
:102BA00062616C767D788079716B66584A5C5D6491
:102BB000709391A3BCBBB6C8B8A0A8997A7A745890
:102BC00061615C68746980817D8077686159485D66
:102BD0006761779496AEC3B8B2C0ADA09E8877798E
:102BE00075656F61626B6D6E7A767787776F6B5DF7
:102BF0004E5C5C5F789292AFBDB6B8B9AD9C9B87D6
:102C00007E767A6B706A6A686C6F6F747A7F777C95
:102C10006D6B5861605F63809198B2B2B1B2B9A632
:102C20009F97897E81766D6B6662656B686D76793C
:102C3000767C76726C606668606A7E8692AEB1B3AE
:102C4000BEBCB4ABA78C827C6A626058566260617D
:102C50007175787C7E807A7368676866627C888B21
:102C6000A9B4B3C4CBB2ACA88C8177655A595B5870
:102C70005766636D7E827A7D857079596665746565
:102C80007D9393B4B7B6B0C6ADAA95826C78675FF2
:102C9000586463747E7872827E716C5B5B575E45AC
:102CA0007D769691B5ACC8C2ABA1919B80835E6CDA
:102CB000598364716F83859D8B83867A73585837E7
:102CC000593F55368999C1B6BBD0CED59F90628603
:102CD000666C47615E837976768A9C93977B897070
:102CE00086515C4061415A336DB2B2C2AAD2C0DC97
:102CF000929058856E6C58646A82896383789C8947
:102D00009D74977586635C465A47463751BCA6CE7C
:102D1000A5CBBFDF938A636E83675862776E9B652E
:102D20007D7EA08CA07E937F7D6E574D4F4A343CB4
:102D300030B2AED6AECBC7D6AF806664895F6B5B70
:102D4000796D9B6B7F7D98969D8D8C856F72494ABE
:102D50003A4B2A4828A9B8D4CAB3CDD2BE7D8254F2
:102D60008C6F6E60766E907F6E7F879296957F886F
:102D70006D71524940532A4E2982C7CECBBCCFC673
:102D8000D18A7F5585747958746787876D777C946D
:102D900087A472886D84565C3D4F33442C69C9C248
:102DA000E8B0DEBED88988547C7A78615C72678B23
:102DB0005C81689E8FAC7F906C8069514B483A3B38
:102DC0004248D0BCEEB2D8C1D694856164876864AD
:102DD0004C7259935D7C719A92B3888D7F8273593E
:102DE000523E49324632C6B8E8B1CFB9D2AD7B6A5D
:102DF0005E8A626E3C6B508F657E759EA5B99E9112
:102E0000887D815A5037472A3D2CB8ACE7B3C0C102
:102E1000CEAF856F51925C69426A54916C82829FF9
:102E2000B4C0A6958477795646343A223C21B3AD96
:102E3000E6B1C5B5C6B37F6E55925D74497A5E97AB
:102E4000708E82A1ADB5A78C82737B50523035262F
:102E50002F26B1A6E5B2C0BAC6A986715CA3637D70
:102E6000527B6499748D7C8DA5A4938776737F596A
:102E7000543D35282B2FB2A3E0A3C6B8C6AA8E7145
:102E800070A86D84577C67987088678F9AA491802A
:102E9000767779545A3D3733223FB8A7DC9FC6BBBB
:102EA000D1A7966A7BA16F7C546C69926881648A11
:102EB000A0AB8C876A7A735C5148353B265CBBB00B
:102EC000DF9EC9BCD297965D8E8E796D52656E88F5
:102ED00066855B9C9CA48B8764836C62564D394AE3
:102EE0002A77BBB5D599C2AFC8858D48937E766ADF
:102EF0005B60768E6C8C6D989BA983876185646915
:102F0000534F3C51328EB9C3CC9AB89EB97B8A4597
:102F10009D768366645F7E8580886FA1969C8382A0
:102F20005F8B5C684F563656299EAAC7C093B1A3E3
:102F3000B77C9249AB788B6269588B7F8385759F8C
:102F40009B9A7C7E5C885C644A48324532ABA8D54B
:102F5000ADACAEB2B38B805EAD688D5266569277E3
:102F6000927B87A0A19980736775525D3E3A2F3C92
:102F70003FC3ADE8AEC3B5C4A38D7064995F7D4512
:102F8000675794739D7A959E9B8F7D63636B5054B6
:102F9000433D3E406CCEBEF0A9C7B0C5908C537681
:102FA0008968754B66668F76966F9D8F9C817E597A
:102FB0006F5F6156544654437FD0C3E79BC59BC4A3
:102FC0007F8E48877D736D4F65658A6B8F6A9F8999
:102FD0009A7D8060796466595649543D97C9D2DD1F
:102FE0009DBDA0BC818C47916F765C4F56737D7BF5
:102FF0008976AA98A487895F8659674B523E4D3DD2
:10300000A1C0CED09CBF9FB67D81488E67745853B7
:10301000627886838F81AF98A38C7C6F78625B4ED9
:103020003F47395EB6B9D4ABA7A8AA91855C6B9827
:1030300077815B616D84768F78949D99948E76808C
:10304000755E5B473F433A68B2A9C99DA4A1AF969C
:10305000956B859D7F805C5F6A7C708A788F9C9081
:103060009A84777B6C5A5335323A499BA6B6ACADFD
:10307000B2BFAB988B7BA2887D66645C7968707CFC
:10308000849E938C837A76755B4E4338395081A742
:10309000B6B6ACBBB4B09D8D85948F7A6F5E646A12
:1030A0006B65728391998B7F7474786A5A5A504F0A
:1030B0004F5E93A8B8ADB1B0BAAD9D8B8092837CC2
:1030C000696158626565677B8B8F927B74767B77CD
:1030D0006C616163567695A1AFA5A4A9AAA4958158
:1030E0008D8D8679695B5F5B546361768E908C9180
:1030F00080908C867E6E69696251808BAFAC9F9C9C
:10310000A1A1998B6A8378796357515F6F70767C40
:10311000929AA1948C8486817F726D6C6B6B647DB6
:103120008B9F9B8E8A9192897D6A757474726F7081
:103130007C7D8284858C8C968E8C848A80827B7345
:1031400073747D71726E716383818D8E898C8C8BAB
:10315000828674867F7F777E7A8984868585908C47
:10316000827D7D77796C756D77747F777E797875E0
:1031700070707E8F979E8C968A8C868076838081F5
:10318000817E83838279757174747F7B8283827D73
:103190007F77817D79807C7C776B7A959195868528
:1031A0008A8E807C747F8C867A70717A7A74787754
:1031B0008E928F86827F88817D817B8285807A7BDB
:1031C000737A7475767076797273778594958E8537
:1031D00080838D8486878E97958A84767A7D746FB6
:1031E0006F737A7F716F75848E897C7C838A887611
:1031F0006C73797B6D6366759BADACA39896978075
:103200006F5C5D7076767C737B8E8C8C88868F91FC
:103210008B8B736C71787F7C747A898D91867E7FBD
:1032200079706C60616365808E959A908D93918AB8
:10323000867E9091928F807976747477738482877A
:103240007C78757A777A746B72616053748FA1950C
:1032500092919EA4998A7F949DA2877763706E6DE8
:10326000626A778893898A7E82807C6B716D766AC8
:103270005F58577297A5AAA6A4AEA29A8A7C787DB9
:103280006D686066717E7E808693A69D8A7B727073
:103290007C696B5E6364655F6692ACBCA4938F9738
:1032A000968F6C66747B80756A7A8A898B83939B10
:1032B00096877A6F73736C5F62635D595C87A1B1A7
:1032C000A78E91A19D917B697A86857A706E7E85A5
:1032D0007F7E869A9F97827D7C786F62565655498D
:1032E0004B5187ABB3AE9FA8B2B2997C6B79827E0B
:1032F0007061697487858E909999918E7468625E09
:1033000057504645465B73A6BCC8BCAEB1A59A886B
:10331000756D84727E736C70817F89888998848AC8
:1033200076685F6A5C69555055566079ADBDD2BC10
:10333000B0AB9E938B656A77737D6F61737E7B857F
:103340007D8A9092897B687170696B595A545F5479
:1033500081B2BCD0B6A9A19E8E7B586279787F627B
:1033600063757D7F88778EA0998C7B72747D6C6984
:10337000525B57585478B8CAD4AB99939381694C2F
:10338000627F7F88736F7B8B878C7F9099928D771C
:10339000747574676C53574E55506FB5C1D2A4976E
:1033A0008E8C80785E72938B978478798478847D14
:1033B000868E8A8A7D706A6F606953504C5653635B
:1033C000B3BBD7AE978D949687706D968F9B7E72A8
:1033D0006A7C8381767D8D878E7771696D6965578B
:1033E0004D4F4F5351ABC2D8BF9D9C9EAE8E726461
:1033F000928A937A64617C7D736E708789947F7BF7
:103400006C7B6C6E6053564D544AA4BCDBC5A1A5C1
:103410009EAB918261948586765354686E64786D14
:10342000908E9B90867C7C79747559644B563F8551
:10343000B3CAD19EA596AD958357727979785C54BD
:1034400062797A857D9095A8A48878777A7B795976
:103450005D51564067AFBCD6969885A19380536165
:10346000847F92685F5A8B7C907C8D97AAA7947E0C
:103470007688727F4B56374F2D61ABB9D194A18EB0
:10348000AF9C845570878A90676163878189798F43
:103490009CA6AB90796F736869414A37413669B829
:1034A000C7E19DB09AAF977D526D8D8893616E6430
:1034B000937D8C758E949D9D7D7161716573485768
:1034C00039543871B9C6E49DAD97AB99855071896F
:1034D000868B6567668C7A876D8B8D959982766E03
:1034E0007A6C74535639543371BDC9E4A0AC9AAEAA
:1034F00098814C6F7C7D855F615F88788E6C958A42
:10350000A1A88A7F727E6F73445A35583670BCCF3B
:10351000E198A48BA98C754168798289676C668C67
:103520007C967A9D92A3A9907C6F796B744D5A36E4
:103530004D2B79B3CAD4909C889F84773F7E818F2E
:103540008A676E7292899C77A093A99F8A71797518
:10355000706C47522A432588B1D2C8929F8FA781A9
:10356000734880809088707B7893898D7E9C90A929
:10357000A087706F6268594049294535A0B8D6BD0B
:103580009AA393A58270488C72A17E7474839488E8
:1035900095709B8BAF92825C69566D4E5046444845
:1035A0004AB7AAEFA3A798A29A8658559480AC7AF6
:1035B000766B8D8794777C9093A792736A6E527125
:1035C0003E543D4C3C75BABADE92AB96AE998348F8
:1035D000698A88AC6774718E82956D878D96A7878E
:1035E00069656960723C5A3C5F378BB0CCD48EA65B
:1035F0008CAA8C7F3D7F7C979971727B91818C6CBA
:1036000093839D9885686E6167654C5342553DA1D3
:10361000A8D0B98FA699AD91735095809A7D6F7897
:1036200083867C89799C869F8D8569785975554EEE
:103630004D434B49AFA5E395A09CA7A18B6362992D
:1036400079A06F807287718E7A838D829F8A7D6365
:103650006D5B764B5C394A3869ADB2D197AE9DA9A6
:10366000968E5A7C8E879E737673847C886E818159
:10367000849B92807074637B515C3B453763B0AC34
:10368000D596B2A4B19D90617F8C849B686D628059
:103690006E8164828691A992857975646F425235F4
:1036A000533E65AEB5DFAAB69DB09D8E6575887D2B
:1036B0008D666A628475826E7B8C95A8918874771A
:1036C000646D494D414F4257ABAFDFA7AF98ACA4F3
:1036D0008C6A66877A906A6E5F7F758072808A9343
:1036E000A89394767A666E55534B464A3E9EABD766
:1036F000B5A49DA6AF8F7556837390716B59777C77
:1037000083847C8E8FAD9D957975686D624C513E3A
:10371000503576B0BCD6A2AC9BAE9283547176770E
:1037200086656B67898195818C969DAE90806B696B
:103730006665504D47485148A8ABDEB8A69C9CA092
:1037400083764D85678B776E678288929081968E9F
:10375000A0997F736D68625A4A5650574665B1B555
:10376000E2A2A490A4948858657F789A74716E8AB6
:1037700081947C838A8F9894707B666E6B5C535ABD
:103780004D57467FB6B9D791AA8FAE8A814C777DC7
:103790008A926B716F8D7F8E6A837F9397876E7825
:1037A000738072595351515C4091AFC9D49AAA9316
:1037B000AD8A814D817289846B67717E79846D8950
:1037C000819B968B7A84747D65564C53525C43A0E2
:1037D000B7DBD799AA8DAA7F723C76679283706611
:1037E000707E7E886C8B83A59C917A85737D695CE5
:1037F000545A5859439AB4D5C68D9C85A7806F42B8
:1038000079739B826C6074838689768E90AB9F906F
:103810007B82727861544B5A51583E9CB1D8BE8B12
:103820009181A67F72437F79A18473657B8893948D
:1038300080928EA395846C70666E6255555F565962
:1038400044A5ACD4AB86888AA68574559586AA8390
:10385000776B838A8D837A8587958E7D6F6A687092
:10386000655A5858525049ADA1D79E98939EAB883F
:103870007A6098799F7579668580847F7689859B43
:103880008E7D6C6B6A716C586758654860B0ABE0B0
:1038900097A28AA3968864688B7D9C74726A8578E7
:1038A000886E797E8697887576737E837469665D87
:1038B0005E3679A3B0C885A18AA893896285868877
:1038C0008F65696476747D717E8299A79589807D04
:1038D0008B8166534A4747319697CAB395A596B1EF
:1038E000958A609371927463616C80818C78918FFA
:1038F000B0A48F7E797A76643B4A39523160A5ABA9
:10390000D794A093B1A59E6D7B90849867645F7BEC
:10391000728E72808F98AD8D816F806D6D4345443E
:1039200043423AA79ED9AF9FA3ACBBA69275A47C95
:10393000976B565168687E7F739995B796846C72C1
:103940006466433742325334A4B3DFD6AEB6A8BB65
:103950009A985890748072515661777891789691C0
:10396000AA9B806767635F5B3D4E3F613A97C4D80F
:10397000E0AAB994BC8B8E54827E7B7E525C4F80D1
:103980006E96768B8BA39E8D716C736771415733E6
:103990005A328FBBD6D69EBF91BD888D5A837E7911
:1039A000734D5749837B9782988FAEA38D736C6F4D
:1039B0006965404B31573AA1BCDCC89DB58EB486D1
:1039C0007C56886C876D53615B8F8A9A859E89B718
:1039D0008D846A656D6A5941443A554FBFB1E3A27F
:1039E0009B9E91AB8076609C74A1686A6373888E9D
:1039F000897F9487A97F806A75636C464D35493EFF
:103A000080C2BDD580B086B5988C66839683985861
:103A1000726288848D738D87978F76726D6B625713
:103A20003F4739494EBAB5E9ABA2A398B685795C50
:103A3000987AA06C71687F88908378907F9B716B77
:103A40005D6A5B6A46534151499EC3D6D78CBC8799
:103A5000B688784B7F7E89915F756C918B936C856E
:103A60007694896C6367646E63544C524975C8BB25
:103A7000E596AF97A09D7B5A5E8B78A16D716886A5
:103A80008A8E767B888497796869676663584C4B21
:103A90004951BABBE4ACA3AD9AB27C68437A709545
:103AA00081696F7B9696917E8B8BA08B6B675E6036
:103AB000644D4D454D41A2B9D6C394B392B98D72B0
:103AC00045686D8C956F74768C9AA38390859A9DCA
:103AD0007B645C535C4D4235463B8EBDC8D493B687
:103AE0009BB69E85505E7272957F7977868CA29385
:103AF00096858E968D766851524E4934362F63B92D
:103B0000C1DEA3B499B2B294745D7865898274728F
:103B1000787E909597928D909080785D52474A413B
:103B20003B314A9BACD7C1B9AAA9B69F8D756A67CC
:103B3000687D736F786C858A9490908A8E8C857777
:103B4000695D5946463C407D889CADB5ADAAB8A597
:103B50009F9B7D7F687C776A715E687482818484B4
:103B60008D989B8B8A6E7358493F3C6D7381869DFF
:103B70009FABBEA998AC919387837C747B5F66638F
:103B80007773797873899490897C7871664E555FE4
:103B90006677808A8AA9B4A5A7A39A9898907C840E
:103BA0007D6D6A6C61686C6A7084888F897E7B77B2
:103BB0006D5E6C525B6C828A92AEA3A4B2A09F929F
:103BC0009685838671756B6B6169656E78828B8E65
:103BD00085857974676A6B515A667D88A5B0A1ADF9
:103BE000B4A5A6938C77827A6E7969716567696EE0
:103BF0007A7E86857D84776B586C6A62706E828D62
:103C0000AFB6A8ADA89D9F948B727A777479706EC9
:103C10006A736B6E75787E7876786F6D5E73707090
:103C20007F80898DADAEA7B1A495918F80757767A0
:103C30007272736B6B7072777777777B7A7C787040
:103C400061776C6F7E828D95B0ABAAB3A39D8F898F
:103C50007C6F7661656471636E6D71858888807F25
:103C6000788070705A6E6B697D819091B4ADA8B404
:103C7000A099908C7A6B745E5E62676A6B767B85C6
:103C8000979188847C75726D59666B6674818A978A
:103C9000A4B5A4B2A8948D84816B7B685F696D6CB8
:103CA0006C72707E92908E8C868074705F586F629A
:103CB0006478818C95AD9BA6ABA2988E9085858407
:103CC0006D636B6464696E6B869197958C887C7369
:103CD0006C565E6259646D827F9AA3A5B0B9A9A0A3
:103CE0009B9383818062685D645A6E6F6D818B9651
:103CF000979282746D69535A565A6B7F8F8BA4B416
:103D0000ABB8B1A39C9C947B8077686A625A5B686D
:103D1000736D7C848B948F7E6F756D5D5C5E5F735D
:103D2000808D8A9DBBA9B7B5A39D9C957877756654
:103D3000655F56535C6B6777808D969E8D86847128
:103D40006359615F6F788A8899B7ADACB0A59B9ACB
:103D5000997E6E745E605C5B54597672868E8F9627
:103D60009B9483816C5E5964616577848C92B2AD5B
:103D7000A4A89B9192947B6C746B6E726A66617A54
:103D8000747B8787879699868374665B6364666CA9
:103D90008083879FA89A9C9D929698937F87817332
:103DA00075716B606A6C68777E8587928D84837588
:103DB000645A655F626F778291ACAAA6B2A99D989A
:103DC0009B8980897564726D655F6A6C73898B8964
:103DD00084847774655A3D617673878B9599B3B8FF
:103DE000AAA79B80858683676E636078797C7383DE
:103DF000879B9D9285777267606345443964979786
:103E0000BEA3B3B3BDC38E835B616B6E75576A6C23
:103E10008591908373878F9C94866F767373625FAE
:103E20004B4B426BAE9DC5A6B7B2B3AC7574576D24
:103E30006D6E755C647586858B81789E9BA190867E
:103E40007B7C786A6151554B424CA6A1C8B9A7B298
:103E5000A5B277704B677169765D677D8E8B8E93A7
:103E600084A399A192807878746266465B484A423E
:103E7000A2A3C1C394B497B07D745670756E7B6273
:103E800073808D899290839E9392897C76797966EE
:103E900067496145502F85ABB7D494B9A0C0917CD8
:103EA0005161776D8D5F6D798C938D907F968F903A
:103EB00083747D6F7B5C6A486249543971C6AFEA8E
:103EC0009AB79AB5916E504D86678F676E869797B1
:103ED000868475828E8A8C72867A886E684D5D5C67
:103EE0004E484CC9A9E69F9B98A19A666046957377
:103EF0009170637D8C947C7C6E889F989B7E91836F
:103F00008C6A6448515D3E4E36C8A6DEA6909E9FE0
:103F1000A9626A4090728576678093917C867D91D4
:103F2000A58F9580888177675E554F68415332B77A
:103F3000A1CDA985A294B86E7E459B809588707CA2
:103F40007D916A7C6C89968E96818C86876A605A90
:103F500048603E3E26A5A2D1B596B8AED082835128
:103F60009480857456687285697F7092A19A9B7F50
:103F70008D78795858434D4F41424DC2ADF1B1B69D
:103F8000B5BAB3756C4D8B69835F57717F887B7D44
:103F90007692959B92798673785B634B5D4F573D24
:103FA00076C8B6E78FB99EB9977356668A748655F8
:103FB0006468867D7C73779897A4898C86867E64F6
:103FC000654A5A394833ACAECEBF8DC49DC0736BC1
:103FD000468473786D4B7079947986799EA3ABA2F1
:103FE000858784866466404B3E483871C0B2DB8D5D
:103FF000B3A1AA946B56648E6586536B7F92887EBC
:104000008489AF9AA884877D896C634B3E3F3F3D8E
:104010004CBEA2DFA1ACA9B0A47C715C9F638A6A8C
:1040200067748D7D768377A695A282837B806E5898
:1040300056374A37423AB3AAD4CCA1C6A8BE7C8030
:10404000519565737B5284828C7190759C93908599
:104050007776776C585F405542493DAAB6CBCDA1E3
:10406000C2A9BB7E775B8E76727056727F8C6D882C
:1040700073968D97857F7B81755E5F43544246368C
:10408000ACAACFBCACC7B4C47F7F5A936E6F5A51F1
:104090006380876F8C769E919486857F826A625456
:1040A0004A45462D57BCAADBABC0CAC8AE8463657F
:1040B0008B6370506364947C888787A28F967D7D24
:1040C0006E795F5A49493E4C2F8CB5B9D2A2CCBA11
:1040D000BE94855883776A715E6B748A74928093FC
:1040E00090938F816F7B6D6259513F4A3751ABA1DD
:1040F000C7A6C2BFCAA69C746D8D6077606F6783C8
:104100006E7F858192918F947F78795A574B433D8A
:104110003F369AA3C2C4BCC7CAB7968A58805F6F9D
:10412000646B6C837F768E7A8E96928D8C757F5FB2
:10413000534444374D2E7AAAA9CFB9D2BFCC949715
:104140006471695E6A6D6C798D74967E84829683E3
:1041500092797972615050393C364F9B8FC1ADD8FE
:10416000C3D9AC96826877577065746B8B7F8A87EA
:104170008983928B9287807C625C48452E352778B4
:1041800080A6ADC6D4D7DFAFA8757D595E5A5F60F3
:1041900077817E97908E9992848A777C6D665C6039
:1041A00055574D4760666F81979EB5C1C0B3B09FAC
:1041B00098989486877F737274686766606C6B7971
:1041C00073796D6F60645A5565646C8B9BA1C3BD38
:1041D000BFC3BAA09C837F7D7C716A6869716A6E77
:1041E00069707B877A7C706A655D4C495E6B707F15
:1041F000979ABCC6BCB1B7A8A4937F7075816E7442
:10420000636D6F7B7471757E837C766968655D4ACA
:104210005061727B98939FBBC0B6B3AB9E9D937A5F
:104220006D7A717570675E6C6F7672777F7D877E51
:10423000736B6F5A5658636783908E9FB2B5B4BA4A
:10424000A7A3A296817F6D6D6867625C61717A7CBD
:104250008E818685817269594F4B585C5B7E96973B
:10426000B0C2B7C9C8B1A7A0848274665E5C60643E
:104270006267787C878B89808576706152474B5B5B
:104280005F647D99A1BAC2BBC0C4AEA696887C7F8C
:104290006C65606263646D6B747C88838D817D73F3
:1042A0006B5C4B4F5860647B899CAFC1BCBDC3B392
:1042B000ABA3927E7F675C5A56555E696C7680939D
:1042C00093959383716E5549414A5561748E99A9AE
:1042D000CAC8C6CDB9A4AE8E7B726056595258601A
:1042E0006A777E83969590968271655D49494659B5
:1042F000627390979EBEC8BBCAB7A7A59F807A710C
:104300005A5E5C5A59636376808594949199817260
:104310006E594D4A4A54636B908EA3C6C3C2D5BA38
:10432000A8AF937F795F4F5D4F565B617081859534
:104330009B939A8F7571614C413C4A5A617D9D9B5C
:10434000BCCECDCACCABA8A2877A7258595E505F5A
:104350005C6C70807A91928F8D806C6E5B4D493968
:104360006B6D6E93A195CCCBBCC5B699A38D7E78B1
:104370005E5F56575F75657E7D90999B948C786AD9
:10438000654D4E322F2B71848DC0BCC7E8DFD1BD87
:104390009989675C5F4B4E4B49627A8C8D96A1A4DC
:1043A000A4A4897B655B544048303332669C9DCE23
:1043B000DBD4E1D8CDB69885514D514952535B5C61
:1043C000708792A0A697A2928F826C654F46443A5E
:1043D0003835549191CBD9DDDAC5D5ADA99A54536E
:1043E00049435E565E5A6B8B9BA3A99C98908B7831
:1043F0006D5E4D463C3E393B60969DCFDCDFCEC0C6
:10440000C6A4A28B514A454F645D6F66849498A000
:10441000999C92847D6A6260545043464B476892EF
:104420009FC9DDD1C4B5BBA39D855A554A5857696C
:10443000757282818490949A928789706F6C614FB3
:10444000524C453D5E879DD2DBDABFBDBC97A4814F
:104450005E59414B4D646D7B85858685939F9D9FFD
:104460008D766F615456544843346884A5D5E4D79B
:10447000C0BAA08D996F68634A5A4463717E8D8774
:1044800085849A9DA2A891876D5F544942422F4D21
:10449000727AB2CAD5CFC8BB9D968B71755E5A4CE5
:1044A000485B5B758487969EADA3A7A092856A56EC
:1044B0003F352B2B2D6F7AA1CED8D7D1D4AD9E9B73
:1044C000777160514F3D544F627D8693A7ADAAA18D
:1044D000A08C7E6A52443236282C6183A3DAD8DD60
:1044E000D5D2B19B9C7C7E685B5343524C556F7C0C
:1044F0008F9BA89D9F9E8E7E67564C3F3925296ACB
:104500007EABDBE0DFDAD0AA9C97797B695B4E3D1E
:104510004F45536C8595A9ABA1A39C87755F524EFF
:10452000353D1C427582C2E1EEE4DEC69D8F806E91
:104530006A586345444E40677797A2B1B3A39C89FC
:104540006E66564D3F41362E6E78A3D7E4F2E9D51C
:10455000AF887E6B635E5B584C5750656F85949F48
:10456000AAA2998E786C6051463F43335F738DBF2A
:10457000DDE9E4D8C09B8C7761635B5E4E5E596277
:104580006F7D8695A69E9D94817166554E393A2819
:104590004B6E82B7DBEAEAE1CAA697816260505BA4
:1045A0004E5F5E657078888CA39F9C96856B644790
:1045B0004839372C476E7EBED6EBF0E5D3AD9580FB
:1045C000676051574C5F666A7E7E878C9699948DA2
:1045D0007F635F3E3E303933527B82C4DBEBEAE9D6
:1045E000D7B29A83636452574D5A6265807E8E8C2F
:1045F000969B8D8979615E463F26312D55808CC210
:10460000DBEEECEBD7B59A89635F4E514959616295
:104610007B809494A39D948C7A5E56413B2C2D25EF
:104620004B7E8FC7DDEEEDEAD9B4988464634F4FBB
:104630004352606278789195ABAEA09986695E3FEF
:10464000382727263E7582BFDDECF4E5D8B795897B
:1046500063615653454C5A577A7C8F97ABB6AFA8D7
:104660009470654939292121296979A0CFE2F0EEBA
:10467000E3C49C946E615D544F46585568778695A7
:10468000A1B3B6B2A98A755841341B22173A6A8081
:10469000B4D2E8F2EAE0B69982625D54564E515FB8
:1046A0006277808F96A7B1ADB09B8071533C2B1F72
:1046B0001D1B4C6885BEDCEAEEE7D5AF9879605DDE
:1046C000565C565D636778848D98A4AEABA8957EE2
:1046D0006A553D2E23251F4C6C7BC1D6EAF0E3D3EF
:1046E000A8937F5A5E585A586364617D81919AA657
:1046F000AEA9A9957C6B5242362B2F21496B76B51A
:10470000CEE3F1DFD9A792835960545C55606661AE
:1047100071828D99A7AAAAAB9A8171574C423B35F9
:104720002C33676A99C5D2E8E1D5B594876D5E628E
:104730005A645C6D63667A80959FA8A7A6A28F795C
:10474000665B4B46383423466A6FB5C1D6E7D7D28D
:10475000A49585616E63626162695C6C7D809BA2D9
:10476000A6A9A2A285786B564C422E2C1E4D6579C7
:10477000B6C1DCE9DFD4AA988766765D60575661DA
:10478000577178879CA1AFADA59B837C675948374B
:1047900026251D4A6379B6CBEAF0EBD7B09D856735
:1047A0006D51575154605A73808F9FACB2ADA29631
:1047B0007F7660503D3725241D446A7BC1DCF4FBC5
:1047C000F2DFAD957C565C495052576260748B9411
:1047D000A3B1AEADA0977A705D5340382C23203A38
:1047E0006B79BAE1F1FCF0DFAF897D4E51524F5A3F
:1047F000566466738E96A0B5B1B2A19D8371624E68
:1048000036342A23222A6E80B8E9F0FAEED9B17C38
:1048100074494B574C5C5672767C92A0A7B5ADB0EC
:104820009C96826A5B413433312D302F738CA9DF23
:10483000ECF5EED0B27A715D4E5D576B65787A7AA1
:104840008B9997A7A0A1948A81665D4B453B413720
:104850004436628592D1E4E8E8C8B686756E4C6B42
:104860005F7370717A7284958F9AA09B98827D672E
:104870005F4C443C49434738598990CEE3E8E3CD47
:10488000BA92777555716F6D7066776A6F8783928C
:104890009F9397888872665F54494F424234457FA0
:1048A0007FC0DADEE6D1C5A0858662746E6463548B
:1048B000685B667B8191A8A1A1918E7E69634F445C
:1048C0004C3C3D2C497F84C4D9E5EBDACC9C8688EE
:1048D0006072635D5F55665A637F869BA2A3A39156
:1048E00097766E5C55464C3E3E2E538184C3D3E78B
:1048F000E5D3CA9389885F795B655E565D4B627BC1
:104900008798A5ACA39E96776B64544A4A3938279A
:104910006B789CD6DEF3DFD8B8808E6A5D634B641B
:10492000475B5151718195A8A9AA959788716B59D8
:10493000515042442F4A877DCBDBE7EFCFCB9580A8
:10494000855D6A525354415D435D7D89A7A6A39B53
:10495000989883706360594945382F7B7BA6D9D7D7
:10496000F4D5CEAD7F8F70656545503C4B4D4C7294
:1049700086A1ADA5AB9FA2927673585F493F3624BE
:104980006B799BDED6F1E4CBBB828D725963474BCA
:104990003D455350728397A4A4AE9C9D8C7E746455
:1049A0006051423D2A608199DBD5F0D7C8BC7E8832
:1049B000755E6650543F4B5553787C9099A2A494F1
:1049C0009389797566604D473A316E75AED6DBF0E6
:1049D000CDD6AA86947374675656374D4856747A66
:1049E00097909E9C8F9A827E725C5F3D432B4278AB
:1049F0007ECBD6E8F1D0D4988D88657B525752395A
:104A00005647667A8AA094A08E928E757A56594B34
:104A100038402A6B83A6E8D9FBE1CCBB7C8D6C6760
:104A200071495C4A4E5D557881989E9595848A7D42
:104A3000726A5456414630477D88D1D5E7E9C7CBE5
:104A4000938786667E635A5C4A6356697D8499952E
:104A5000948988807172555444413A316B79B0DB46
:104A6000DFF0D3D0AB8B926B726953584A5B6069AD
:104A7000868F9AA1958E8584726C574C3F343C2664
:104A80005E749BDCDBF6E4D6C58D9673686E4C5A7B
:104A90004A5B66719192A5A1998D777864655843B8
:104AA0004A31412F4C7881D1D2E9EDD2D295907C18
:104AB0005D70545D5B5870718C969FA4A18E7D745F
:104AC0006360594C4E3A463D3C736FB1D1D8F3D632
:104AD000DDB4949363685D50574C616F7F98A0A3D9
:104AE000A698867767615A555047464B4A5677864F
:104AF000B5CED7EDCFD1B3909261665E475B496189
:104B0000727C9C9AA3A6938D776B6757574F475536
:104B100057616C72919BB2C3C3C9BAB39F897C6859
:104B2000685E5C5D62727B84898F90928F817C7AF3
:104B30006C695E5A6060747A7C8685848C85889402
:104B4000949E999A978B887B7E8180857F7D7F7CE0
:104B50008481777F7F807C71686161646C737C7E07
:104B6000808A7E7E7D7C897D87898B8F86919496D5
:104B70009C95999791937F7C746E6F6D6C666E6A4D
:104B800074727D7D82837B796E7A787981777F817B
:104B90007786748E8B8E978B9B949A958F8F8C8152
:104BA0008272756B6E6D6E78747E7B7D787F7B8094
:104BB0007F807E7E81787673777E7E7F7E888B9203
:104BC0009A8C93898E8482767471797677847D84C9
:104BD0007F837E887D8D7983817C7D70786F7E7800
:104BE0007E777F88868E898D918E8A7F78716E73AD
:104BF00070737E758182888D9395948B8A887B7E75
:104C0000716D6D6D6E7874858390919498979B8B80
:104C10008473685E5C5C6168717B788C8C969D980F
:104C20009D8B8F827E736D6A696C7879848B949783
:104C30009E9B9A9C8988736B606054625971787BE3
:104C400092909A979F8E91857E7C6878667373792F
:104C50007E7B8A899A95A18E998B847C6B655D5F3A
:104C6000596466737D869197999A9C97928E7C7908
:104C70006A6A696D727B7B848E929C93998E8E8713
:104C8000796B5F595B5E5E6B748992A0A09CA59462
:104C90009D88877B7370646D67757C86878D8B8D2F
:104CA0008D8C8A837F706D65625F62676D818A8F8C
:104CB0009B9D9E9B9C8F9389847E717267726A7F95
:104CC0007C85877F8A838985847A7E7577706A6917
:104CD0006B73717D8387949A99979A8E8E897F7F63
:104CE00070716F75737F817E898388878581797BF9
:104CF0007973736D6E77757B78818C8991929690BC
:104D000094878887807B797A7C8376857D8681808D
:104D10007F7B7D78757379707A727C747C7B7C7E06
:104D20007F8486928D8D8C8F8B8B82808285837E13
:104D30007A80807E7E757A7A7A7A777A8180807CB2
:104D4000787F7D7E787D8087888487888E868B8239
:104D50008382837D7B7F798581837D7D7E7573787A
:104D600073797F7A7C7F82798280808483857E8755
:104D700084818684898686847E7F827E83867F8006
:104D80007A7B767475747B7F838587898483827F41
:104D90007A7A79787B7C7F8188898B8E8883857EFF
:104DA000817C7B7C7979717174787A7A7F838B8C42
:104DB0008B8D86877D7E7A797E7E7F8682878E8BBD
:104DC0008C88817E8078757377757B746E75767A42
:104DD0007C7981848C8C8E8B86847E837A7F7F85A0
:104DE000858582888B908A888380797871717071CB
:104DF000766A756F7A7B87818D8C8E908C867F7EAC
:104E0000767E737C7A838085848894958F86817C76
:104E10008072726D70757374757E7E8987878C88D9
:104E20008B857F7D7A767E7679757F848383819189
:104E30008E9283867F827A7278737C787E7A838181
:104E4000858482888182847F7C79797C7D7877797A
:104E50007C827B83848B8B8B87867F7F767678784A
:104E60007F79817D88818681848784857D7C788037
:104E70007E7D7B7D7E7E7C7B80818A898689848025
:104E80007975707A7E7E807E828482807F7E828148
:104E900080777D7F7F837B7F828480797B77858924
:104EA0008C8D868C857C777B757F7C7F82827F7CF6
:104EB000777480788273777D81807F84858B868903
:104EC0007B7B7A7F7D818487857C7B78807F8A8AE3
:104ED0009598968F82757A7C726E65696C72707621
:104EE000737B7C7F7B7C6F7C7B8D9DA3B4A5A6931D
:104EF000917B7E707473797A76787887848A787AF1
:104F00007071706E61616163706C78657D809BA863
:104F1000B7C1B9B597947878656E6B777B7E7C85E1
:104F20008D898E807A6F716A6D62625F5A68696777
:104F300068617B7FA3ABC7C5C4B59A8E756A606C88
:104F4000657E748482898B9088837D75736F6E67AC
:104F500062625E625F66596B8190AEC0D8BEC394D8
:104F60008E6765575C68767D808D7F90828C879098
:104F7000828374746C6E6963616560605873759D3B
:104F8000B3C7D7BDB88075515B53717187838B8769
:104F90007C81808F92968A81747A6B6E626C5C6C75
:104FA0006266567678A7B7D6D9B0A86062376154E2
:104FB0007C86958B8978758488A5939B817F6F7695
:104FC0006671657063706166576E82A2C6C8D79DB0
:104FD000A156623F5C667F938F897779719089A82B
:104FE00091957F806B756C7770756D69605D585CAD
:104FF000848DC8BAE0A3A2685E525B7A799A7F89F1
:105000006D7E6C8D8CA1908E84766E73717A7472C5
:10501000705B67595D558587CEBEE5A79176536B6A
:10502000548C79A080866A7A72868F89927F857A7D
:1050300072787B7C826B765A6A55614A777FBAC5F3
:10504000D0CC88984B715D89849383786E6E7D7423
:105050009480928587867F898373796166515B50DE
:105060005E3F6F7EB7E3D0E98497566D6C7F87848F
:1050700078676B668B7C988987938799968C87690C
:105080006A4F5C525F4E5C32688BBBF7CAEA768926
:105090005B66787F8773725B7973A38B8C8A719B55
:1050A0008FA598877A5D63546753613D4F2D75A333
:1050B000D0F8C9DC6B87637E81796C5163578C892A
:1050C000AB897B837FA4A1A9867860606065655009
:1050D000533C5249A2BDEEDFC2A9628D688165656D
:1050E00055537777A5909C77778591A99A8C686CB2
:1050F0005F78687250554B535679B8BAF7B2CE8381
:10510000808161755866577A7E99928B7D5F888021
:105110009D9A8F81757B7A7D6762414E465B59A36C
:10512000AED6DFB6BC6A9468736452535F808BA7B7
:105130008595687D9289A38E88797874836865499E
:105140004553575D7EB2C2F3BAC17E6E85606A4C2C
:105150004D5D8684A68886826C9D879A8A80798830
:105160008383775A5D485E5A545BA3AEE6D2AAA702
:105170006F947B6C564E4D7C858F9664836C909CAF
:105180008E8A847F8C9A788157595855545242920E
:10519000B1D0EFAABB8297936F5648446990778D40
:1051A0006473838F9E8D7B798F8AA2777464565D3A
:1051B000575254457CBCC1F0ADB1A49D9C734F487F
:1051C000545F98797E7770898A877C7374908A9906
:1051D00084787A71635D49494E56AEA0D4BBACC5A4
:1051E000AFB084634A68597E78657A6E848A8A7E15
:1051F00082798D8C8389757A7561564C41514692BE
:10520000A3BCD7B0CFBAB99377515A5C5C7D5C76BA
:10521000747A8C94888D8782917B8A76786D6A50B7
:105220005E4A505063A698D9B5C2C4BFAD917054C0
:10523000654B6F575B6C6E848E9F8EA28A8F8981BF
:105240008570745B614C644B605175938ECA9CCBC6
:10525000B8C4B29F856A6E556A42554C657B899A7F
:1052600092A599A294918278796868656262666570
:105270006668797D8898979DA7A79FAB9E9A8A7D3F
:10528000736E756C737276767C787A7A7A7C7876BF
:105290007878767B7070626B6E75888C9893A19F1E
:1052A000A2A8A1958387757B7C77777B7E7E827CA5
:1052B0007872756A6E6B70757D7D7474696E747EBC
:1052C000888B8E908D9A9E9C9C948B8787868483F6
:1052D0007A7D817A7E766C68656566767680867F73
:1052E0008073746C70737B7B7C88899598A8A0A26E
:1052F000A195938D8C81807B7171766C6A6A5D64F7
:10530000737B87938D8A847B77727665625E67781C
:1053100074878B95979FAAA2A798999794907F845A
:10532000766F696152585B607B8191949897918EFA
:10533000857B6D635954555F6B6B838D9EA1ADB4B6
:10534000ACB69DA48E9380756B5457535F5D6F6DA3
:10535000848D9B9898948D8B887C69695559505998
:105360005D7C758B8D91A7A2C1ACBAA4A393857BFC
:105370006B694F5C546A66747472808AA19BAA98A8
:1053800098828371665D534A4C46547866A398B000
:10539000A4C4BCB2C08B997A866D73635B66566990
:1053A000636F7A8C929AA09CA3968F828165644ADF
:1053B0004339463F6C6E66A185B39FD6B4C9BDA084
:1053C000AC8B90706F4F54555C7475738885A3AC2B
:1053D000ADA5A0877B715D4C4B4443383D386D6F64
:1053E00074BA98CAB6E3C1CEB99594727C6B6E5B01
:1053F0005A566474877A99899999978D84797378C4
:10540000634F4E3E48454B47619168C3A3C7BBD627
:10541000CCBCC893AB7F7A69635A5E5668667C6B76
:1054200082787C939A9A8C876C78705F5653475831
:10543000485745926396BBA7D2C7EBBDDAA6A38EA9
:105440007A756A574D47445160636D90869FA1A756
:1054500092937678776C6362444E44474B66986BC0
:10546000CFA8C6C0D2D7C7D6969F6E60594A384AD1
:105470003F606D83748E9187A39AA0958D767B6A29
:1054800058605B4663445B478A788ED1A9E4C4E3E5
:10549000C6C29C84785D605F464B46476867847DE2
:1054A000A28DA39D93918378757B63697154615933
:1054B0004D5B54A460ACAB9DC7AEDFB4C99C917F7B
:1054C000606A514952486672807D848F82A09994A7
:1054D000958D7D8676686D6B4C643C4B315E7C5857
:1054E000CA92D2C2DCE0C2C28C92656C62524F4C4E
:1054F0004A686F847C948993A3989990877B88727B
:105500006A6F4F4A4D364B31925A95C298DEB9ECCC
:10551000C5CBA3897B585F5445554861757D8B8405
:105520009D89A7A29F9A937C86786D64674A5144AF
:105530003F3B549259C9A3BDC5C7D9B1B685886B45
:105540006563534F5B5378778E7F939288A3929ACB
:1055500092898282796C6B5C4D5838452C7D5F83D3
:10556000BA94D0BCE1C8C5AA90816C675F4C565113
:1055700061747688819183A0A09BA28C85867772C6
:1055800065653D4C2F362C51805ECFA6D0DADCE726
:10559000C4BB8E7B615E604A49594C7D7E8A909483
:1055A0009499A79A998F79787268595D473F463BDD
:1055B00045409C67B2CDAEDAB8DEBFB2977C71646D
:1055C0006663506755708C828C8A8784948A8C8F2E
:1055D0008180767871706A4A5D41492C7A6079BD24
:1055E00096D1BAE0CABFAB8C7E6E69664A5D5557EC
:1055F00081787E869384939E949D90808871776352
:10560000653D48383D29677F65D49FD5D0E0DFBD33
:10561000B18E7C66565E475265517D787F86918952
:1056200093A19D948F767C71745E5E534A47443794
:10563000689570CDA3BFCCD4D4ADA0897D6B666ACC
:105640005F5D6B57777F7D778772888F8D8D8284C2
:1056500087827F746869594F4F33637E5CB491AD24
:10566000C2CEDEC4B8A1947A6C6C585258496772A5
:105670007472806F8797969992859686857F696206
:10568000513D3D234E7853C2A5C6DAE0ECC6B79132
:1056900080665960494A5C476E757D809282909B16
:1056A000999B9A85927D7C74615940413D3A589509
:1056B00067C6AAB1C7BECFAEA789826D6C696254B6
:1056C0006B57767F788487838A96909092818A7AC6
:1056D0007C72696C5D544E424B8845A1949BC3BA61
:1056E000D8BDBA97977C716E624A6957718477808A
:1056F000827D8194858D9485948E8C8175685242CB
:1057000031302D804799B0A8E0C4E5C6BF9B8772B1
:105710005F655B455E4E68817F888A8987A19C9D15
:10572000A48C8E7D7166535341473F493F946795E2
:10573000C596D2BEC9C6B396877564646B466A596E
:10574000688A7B8D91928A9A8D8687777677707634
:10575000676E5B57484A3880657BC18CC9C8CEC923
:10576000BF9F968070656C5166675F897B83817E81
:1057700072807A858286858B817F726D5E52433D11
:105780002A766A64C488CAD0E2DECEB7A699746C61
:105790006A52535F436764697A817D988F989894C1
:1057A00090887F6E6062534F3E3A245C8254CF975C
:1057B000BBDDD5EAC7C9A398816263493D58426AF7
:1057C0007371838C8BA09E96878E85817D6A6459C8
:1057D000544C4B41334D924EB4AAAAE3CEF0C6C40A
:1057E0009D957D696657475C5A7185827E897F8A5F
:1057F0008D80857680757A7566736D525D3D423019
:105800008C5E83C685D8C1E6D2C1AE99887B716EA5
:105810005559625B7D6F6E797C7692888881908520
:1058200086896D676E5458473D2C697961CA88B97D
:10583000C6D5DDC7C3A89A90796B64426243696993
:1058400065727A7D8F9A958F8F82848B6F62635297
:105850004C4B3828497F53BEA8B6DFDFF9D7C9B50E
:10586000938478556335604460796C7A7B7E808E52
:1058700090898E8A7E8F7E6A6A5F434A372E3C8289
:105880004FA6BDA7E5DAEAD7C8AF9A7F875770451C
:1058900057594E73626D757E868E9492919A828767
:1058A000795D5E61414B403B41895E8DC09DD1CDAC
:1058B000DDCCCFB3AB8D8B656851425B46626C6AC1
:1058C000758A8C9697998A948B81856B60704D4808
:1058D00040362E765E6FB899D1D5EED8D1BDA38D66
:1058E00082605758435F5867767471837F8D9091BB
:1058F0008E92968B887858664F4340322764766242
:10590000C1A3C4D4E3DDC2BDA29390785B6B4B57B7
:10591000535D636B6E7D85929F9A9C8F9485807B8F
:10592000555A513E433B2F4B855AA0A9A0CAD7E7F1
:10593000D1D4B6A39B8E5B664C4752526767727791
:10594000869099979C9594877C7E625B5C42473CED
:10595000352C726779C6A4C9D8EAD6CDBE9D8D8F85
:105960006C5D624E595568666D6C7D808D8F90942C
:105970009391838A76605F4D3F474034618660A98A
:10598000AEA5C6D6D8CAC8B09C9391656B5A544F81
:105990005E5C61696C84849C909796928782786340
:1059A000675D564D453D2D716665AF9AAAD0E1D72A
:1059B000E5D5BBA5A2856465474149514E5E63713B
:1059C0007E92968F9B9D9A99926C685A49483D3F6A
:1059D0002F3A796587CAABC4EEDFDDE3BBA79192AE
:1059E0007A5B6446475257485C5D65808A978E9D16
:1059F0009F959B92736B5C4E4744433749816B8FF5
:105A0000C399BEDFDBDADDBDADA0997759554337C9
:105A100047514666646B7E949498A293909B877AD4
:105A200074655F564C443943735F83AA9ABDE4E0C2
:105A3000DEE0BFAA9A917660584238434F4C5D68C9
:105A400067799491A4B49BABA68F83755C4E49395A
:105A50003B354477647DB495B1DAD9D3DFC3ABA0CD
:105A60009B87645E433634483F4A65697BA2A2B394
:105A7000C3A6AAA49B8773574E413538232B625F78
:105A800074B0A9BAE4F2DFE7D6B4998B75564A3FF1
:105A900030375F575F747081A6A8A7AB9F8B8F8A42
:105AA0006E69494E4C3844363B898C90BEAFB6E2A5
:105AB000E4C6BFA48D7F827856555E496480666EC9
:105AC0007A7D859D997D89807283746B645B635D4B
:105AD0005251376C9285AAB4ABC0E2D1BFB19F746A
